{
   "_format": "hh-sol-artifact-1",
   "contractName": "CrowdFunding",
   "sourceName": "contracts/CrowdFunding.sol",
   "abi": [
      {
         "inputs": [],
         "stateMutability": "nonpayable",
         "type": "constructor"
      },
      {
         "inputs": [
            {
               "internalType": "address",
               "name": "sender",
               "type": "address"
            },
            {
               "internalType": "uint256",
               "name": "tokenId",
               "type": "uint256"
            },
            {
               "internalType": "address",
               "name": "owner",
               "type": "address"
            }
         ],
         "name": "ERC721IncorrectOwner",
         "type": "error"
      },
      {
         "inputs": [
            {
               "internalType": "address",
               "name": "operator",
               "type": "address"
            },
            {
               "internalType": "uint256",
               "name": "tokenId",
               "type": "uint256"
            }
         ],
         "name": "ERC721InsufficientApproval",
         "type": "error"
      },
      {
         "inputs": [
            {
               "internalType": "address",
               "name": "approver",
               "type": "address"
            }
         ],
         "name": "ERC721InvalidApprover",
         "type": "error"
      },
      {
         "inputs": [
            {
               "internalType": "address",
               "name": "operator",
               "type": "address"
            }
         ],
         "name": "ERC721InvalidOperator",
         "type": "error"
      },
      {
         "inputs": [
            {
               "internalType": "address",
               "name": "owner",
               "type": "address"
            }
         ],
         "name": "ERC721InvalidOwner",
         "type": "error"
      },
      {
         "inputs": [
            {
               "internalType": "address",
               "name": "receiver",
               "type": "address"
            }
         ],
         "name": "ERC721InvalidReceiver",
         "type": "error"
      },
      {
         "inputs": [
            {
               "internalType": "address",
               "name": "sender",
               "type": "address"
            }
         ],
         "name": "ERC721InvalidSender",
         "type": "error"
      },
      {
         "inputs": [
            {
               "internalType": "uint256",
               "name": "tokenId",
               "type": "uint256"
            }
         ],
         "name": "ERC721NonexistentToken",
         "type": "error"
      },
      {
         "inputs": [
            {
               "internalType": "uint256",
               "name": "value",
               "type": "uint256"
            },
            {
               "internalType": "uint256",
               "name": "length",
               "type": "uint256"
            }
         ],
         "name": "StringsInsufficientHexLength",
         "type": "error"
      },
      {
         "anonymous": false,
         "inputs": [
            {
               "indexed": true,
               "internalType": "address",
               "name": "owner",
               "type": "address"
            },
            {
               "indexed": true,
               "internalType": "address",
               "name": "approved",
               "type": "address"
            },
            {
               "indexed": true,
               "internalType": "uint256",
               "name": "tokenId",
               "type": "uint256"
            }
         ],
         "name": "Approval",
         "type": "event"
      },
      {
         "anonymous": false,
         "inputs": [
            {
               "indexed": true,
               "internalType": "address",
               "name": "owner",
               "type": "address"
            },
            {
               "indexed": true,
               "internalType": "address",
               "name": "operator",
               "type": "address"
            },
            {
               "indexed": false,
               "internalType": "bool",
               "name": "approved",
               "type": "bool"
            }
         ],
         "name": "ApprovalForAll",
         "type": "event"
      },
      {
         "anonymous": false,
         "inputs": [
            {
               "indexed": false,
               "internalType": "uint256",
               "name": "_fromTokenId",
               "type": "uint256"
            },
            {
               "indexed": false,
               "internalType": "uint256",
               "name": "_toTokenId",
               "type": "uint256"
            }
         ],
         "name": "BatchMetadataUpdate",
         "type": "event"
      },
      {
         "anonymous": false,
         "inputs": [
            {
               "indexed": false,
               "internalType": "uint256",
               "name": "_tokenId",
               "type": "uint256"
            }
         ],
         "name": "MetadataUpdate",
         "type": "event"
      },
      {
         "anonymous": false,
         "inputs": [
            {
               "indexed": true,
               "internalType": "address",
               "name": "from",
               "type": "address"
            },
            {
               "indexed": true,
               "internalType": "address",
               "name": "to",
               "type": "address"
            },
            {
               "indexed": true,
               "internalType": "uint256",
               "name": "tokenId",
               "type": "uint256"
            }
         ],
         "name": "Transfer",
         "type": "event"
      },
      {
         "inputs": [
            {
               "internalType": "address",
               "name": "to",
               "type": "address"
            },
            {
               "internalType": "uint256",
               "name": "tokenId",
               "type": "uint256"
            }
         ],
         "name": "approve",
         "outputs": [],
         "stateMutability": "nonpayable",
         "type": "function"
      },
      {
         "inputs": [
            {
               "internalType": "address",
               "name": "owner",
               "type": "address"
            }
         ],
         "name": "balanceOf",
         "outputs": [
            {
               "internalType": "uint256",
               "name": "",
               "type": "uint256"
            }
         ],
         "stateMutability": "view",
         "type": "function"
      },
      {
         "inputs": [],
         "name": "contribute",
         "outputs": [],
         "stateMutability": "payable",
         "type": "function"
      },
      {
         "inputs": [
            {
               "internalType": "address",
               "name": "",
               "type": "address"
            }
         ],
         "name": "contributors",
         "outputs": [
            {
               "internalType": "bool",
               "name": "",
               "type": "bool"
            }
         ],
         "stateMutability": "view",
         "type": "function"
      },
      {
         "inputs": [],
         "name": "fixedAmount",
         "outputs": [
            {
               "internalType": "uint256",
               "name": "",
               "type": "uint256"
            }
         ],
         "stateMutability": "view",
         "type": "function"
      },
      {
         "inputs": [
            {
               "internalType": "uint256",
               "name": "tokenId",
               "type": "uint256"
            }
         ],
         "name": "getApproved",
         "outputs": [
            {
               "internalType": "address",
               "name": "",
               "type": "address"
            }
         ],
         "stateMutability": "view",
         "type": "function"
      },
      {
         "inputs": [],
         "name": "goal",
         "outputs": [
            {
               "internalType": "uint256",
               "name": "",
               "type": "uint256"
            }
         ],
         "stateMutability": "view",
         "type": "function"
      },
      {
         "inputs": [
            {
               "internalType": "address",
               "name": "owner",
               "type": "address"
            },
            {
               "internalType": "address",
               "name": "operator",
               "type": "address"
            }
         ],
         "name": "isApprovedForAll",
         "outputs": [
            {
               "internalType": "bool",
               "name": "",
               "type": "bool"
            }
         ],
         "stateMutability": "view",
         "type": "function"
      },
      {
         "inputs": [],
         "name": "name",
         "outputs": [
            {
               "internalType": "string",
               "name": "",
               "type": "string"
            }
         ],
         "stateMutability": "view",
         "type": "function"
      },
      {
         "inputs": [],
         "name": "owner",
         "outputs": [
            {
               "internalType": "address",
               "name": "",
               "type": "address"
            }
         ],
         "stateMutability": "view",
         "type": "function"
      },
      {
         "inputs": [
            {
               "internalType": "uint256",
               "name": "tokenId",
               "type": "uint256"
            }
         ],
         "name": "ownerOf",
         "outputs": [
            {
               "internalType": "address",
               "name": "",
               "type": "address"
            }
         ],
         "stateMutability": "view",
         "type": "function"
      },
      {
         "inputs": [
            {
               "internalType": "address",
               "name": "from",
               "type": "address"
            },
            {
               "internalType": "address",
               "name": "to",
               "type": "address"
            },
            {
               "internalType": "uint256",
               "name": "tokenId",
               "type": "uint256"
            }
         ],
         "name": "safeTransferFrom",
         "outputs": [],
         "stateMutability": "nonpayable",
         "type": "function"
      },
      {
         "inputs": [
            {
               "internalType": "address",
               "name": "from",
               "type": "address"
            },
            {
               "internalType": "address",
               "name": "to",
               "type": "address"
            },
            {
               "internalType": "uint256",
               "name": "tokenId",
               "type": "uint256"
            },
            {
               "internalType": "bytes",
               "name": "data",
               "type": "bytes"
            }
         ],
         "name": "safeTransferFrom",
         "outputs": [],
         "stateMutability": "nonpayable",
         "type": "function"
      },
      {
         "inputs": [
            {
               "internalType": "address",
               "name": "operator",
               "type": "address"
            },
            {
               "internalType": "bool",
               "name": "approved",
               "type": "bool"
            }
         ],
         "name": "setApprovalForAll",
         "outputs": [],
         "stateMutability": "nonpayable",
         "type": "function"
      },
      {
         "inputs": [
            {
               "internalType": "bytes4",
               "name": "interfaceId",
               "type": "bytes4"
            }
         ],
         "name": "supportsInterface",
         "outputs": [
            {
               "internalType": "bool",
               "name": "",
               "type": "bool"
            }
         ],
         "stateMutability": "view",
         "type": "function"
      },
      {
         "inputs": [],
         "name": "symbol",
         "outputs": [
            {
               "internalType": "string",
               "name": "",
               "type": "string"
            }
         ],
         "stateMutability": "view",
         "type": "function"
      },
      {
         "inputs": [
            {
               "internalType": "uint256",
               "name": "tokenId",
               "type": "uint256"
            }
         ],
         "name": "tokenURI",
         "outputs": [
            {
               "internalType": "string",
               "name": "",
               "type": "string"
            }
         ],
         "stateMutability": "view",
         "type": "function"
      },
      {
         "inputs": [],
         "name": "totalAmount",
         "outputs": [
            {
               "internalType": "uint256",
               "name": "",
               "type": "uint256"
            }
         ],
         "stateMutability": "view",
         "type": "function"
      },
      {
         "inputs": [
            {
               "internalType": "address",
               "name": "from",
               "type": "address"
            },
            {
               "internalType": "address",
               "name": "to",
               "type": "address"
            },
            {
               "internalType": "uint256",
               "name": "tokenId",
               "type": "uint256"
            }
         ],
         "name": "transferFrom",
         "outputs": [],
         "stateMutability": "nonpayable",
         "type": "function"
      },
      {
         "inputs": [],
         "name": "withdraw",
         "outputs": [],
         "stateMutability": "nonpayable",
         "type": "function"
      }
   ],
   "bytecode": "0x6080604052670de0b6b3a7640000600855678ac7230489e80000600a5534801561002857600080fd5b506040518060400160405280600c81526020017f43726f776446756e64696e6700000000000000000000000000000000000000008152506040518060400160405280600281526020017f434600000000000000000000000000000000000000000000000000000000000081525081600090816100a4919061034d565b5080600190816100b4919061034d565b50505033600760006101000a81548173ffffffffffffffffffffffffffffffffffffffff021916908373ffffffffffffffffffffffffffffffffffffffff16021790555061041f565b600081519050919050565b7f4e487b7100000000000000000000000000000000000000000000000000000000600052604160045260246000fd5b7f4e487b7100000000000000000000000000000000000000000000000000000000600052602260045260246000fd5b6000600282049050600182168061017e57607f821691505b60208210810361019157610190610137565b5b50919050565b60008190508160005260206000209050919050565b60006020601f8301049050919050565b600082821b905092915050565b6000600883026101f97fffffffffffffffffffffffffffffffffffffffffffffffffffffffffffffffff826101bc565b61020386836101bc565b95508019841693508086168417925050509392505050565b6000819050919050565b6000819050919050565b600061024a6102456102408461021b565b610225565b61021b565b9050919050565b6000819050919050565b6102648361022f565b61027861027082610251565b8484546101c9565b825550505050565b600090565b61028d610280565b61029881848461025b565b505050565b5b818110156102bc576102b1600082610285565b60018101905061029e565b5050565b601f821115610301576102d281610197565b6102db846101ac565b810160208510156102ea578190505b6102fe6102f6856101ac565b83018261029d565b50505b505050565b600082821c905092915050565b600061032460001984600802610306565b1980831691505092915050565b600061033d8383610313565b9150826002028217905092915050565b610356826100fd565b67ffffffffffffffff81111561036f5761036e610108565b5b6103798254610166565b6103848282856102c0565b600060209050601f8311600181146103b757600084156103a5578287015190505b6103af8582610331565b865550610417565b601f1984166103c586610197565b60005b828110156103ed578489015182556001820191506020850194506020810190506103c8565b8683101561040a5784890151610406601f891682610313565b8355505b6001600288020188555050505b505050505050565b613a458061042e6000396000f3fe60806040526004361061011f5760003560e01c80636352211e116100a0578063b88d4fde11610064578063b88d4fde146103e7578063c87b56dd14610410578063d7bb99ba1461044d578063e985e9c514610457578063ffd34ad5146104945761011f565b80636352211e146102ee57806370a082311461032b5780638da5cb5b1461036857806395d89b4114610393578063a22cb465146103be5761011f565b80631f6d4942116100e75780631f6d49421461021d57806323b872dd1461025a5780633ccfd60b14610283578063401938831461029a57806342842e0e146102c55761011f565b806301ffc9a71461012457806306fdde0314610161578063081812fc1461018c578063095ea7b3146101c95780631a39d8ef146101f2575b600080fd5b34801561013057600080fd5b5061014b60048036038101906101469190612147565b6104bf565b604051610158919061218f565b60405180910390f35b34801561016d57600080fd5b50610176610520565b604051610183919061223a565b60405180910390f35b34801561019857600080fd5b506101b360048036038101906101ae9190612292565b6105b2565b6040516101c09190612300565b60405180910390f35b3480156101d557600080fd5b506101f060048036038101906101eb9190612347565b6105ce565b005b3480156101fe57600080fd5b506102076105e4565b6040516102149190612396565b60405180910390f35b34801561022957600080fd5b50610244600480360381019061023f91906123b1565b6105ea565b604051610251919061218f565b60405180910390f35b34801561026657600080fd5b50610281600480360381019061027c91906123de565b61060a565b005b34801561028f57600080fd5b5061029861070c565b005b3480156102a657600080fd5b506102af610858565b6040516102bc9190612396565b60405180910390f35b3480156102d157600080fd5b506102ec60048036038101906102e791906123de565b61085e565b005b3480156102fa57600080fd5b5061031560048036038101906103109190612292565b61087e565b6040516103229190612300565b60405180910390f35b34801561033757600080fd5b50610352600480360381019061034d91906123b1565b610890565b60405161035f9190612396565b60405180910390f35b34801561037457600080fd5b5061037d61094a565b60405161038a9190612300565b60405180910390f35b34801561039f57600080fd5b506103a8610970565b6040516103b5919061223a565b60405180910390f35b3480156103ca57600080fd5b506103e560048036038101906103e0919061245d565b610a02565b005b3480156103f357600080fd5b5061040e600480360381019061040991906125d2565b610a18565b005b34801561041c57600080fd5b5061043760048036038101906104329190612292565b610a3d565b604051610444919061223a565b60405180910390f35b610455610b50565b005b34801561046357600080fd5b5061047e60048036038101906104799190612655565b610c96565b60405161048b919061218f565b60405180910390f35b3480156104a057600080fd5b506104a9610d2a565b6040516104b69190612396565b60405180910390f35b6000634906490660e01b7bffffffffffffffffffffffffffffffffffffffffffffffffffffffff1916827bffffffffffffffffffffffffffffffffffffffffffffffffffffffff19161480610519575061051882610d30565b5b9050919050565b60606000805461052f906126c4565b80601f016020809104026020016040519081016040528092919081815260200182805461055b906126c4565b80156105a85780601f1061057d576101008083540402835291602001916105a8565b820191906000526020600020905b81548152906001019060200180831161058b57829003601f168201915b5050505050905090565b60006105bd82610e12565b506105c782610e9a565b9050919050565b6105e082826105db610ed7565b610edf565b5050565b60095481565b600c6020528060005260406000206000915054906101000a900460ff1681565b600073ffffffffffffffffffffffffffffffffffffffff168273ffffffffffffffffffffffffffffffffffffffff160361067c5760006040517f64a0ae920000000000000000000000000000000000000000000000000000000081526004016106739190612300565b60405180910390fd5b6000610690838361068b610ed7565b610ef1565b90508373ffffffffffffffffffffffffffffffffffffffff168173ffffffffffffffffffffffffffffffffffffffff1614610706578382826040517f64283d7b0000000000000000000000000000000000000000000000000000000081526004016106fd939291906126f5565b60405180910390fd5b50505050565b600760009054906101000a900473ffffffffffffffffffffffffffffffffffffffff1673ffffffffffffffffffffffffffffffffffffffff163373ffffffffffffffffffffffffffffffffffffffff161461079c576040517f08c379a00000000000000000000000000000000000000000000000000000000081526004016107939061279e565b60405180910390fd5b600a5460095410156107e3576040517f08c379a00000000000000000000000000000000000000000000000000000000081526004016107da90612830565b60405180910390fd5b600760009054906101000a900473ffffffffffffffffffffffffffffffffffffffff1673ffffffffffffffffffffffffffffffffffffffff166108fc6009549081150290604051600060405180830381858888f1935050505015801561084d573d6000803e3d6000fd5b506000600981905550565b600a5481565b61087983838360405180602001604052806000815250610a18565b505050565b600061088982610e12565b9050919050565b60008073ffffffffffffffffffffffffffffffffffffffff168273ffffffffffffffffffffffffffffffffffffffff16036109035760006040517f89c62b640000000000000000000000000000000000000000000000000000000081526004016108fa9190612300565b60405180910390fd5b600360008373ffffffffffffffffffffffffffffffffffffffff1673ffffffffffffffffffffffffffffffffffffffff168152602001908152602001600020549050919050565b600760009054906101000a900473ffffffffffffffffffffffffffffffffffffffff1681565b60606001805461097f906126c4565b80601f01602080910402602001604051908101604052809291908181526020018280546109ab906126c4565b80156109f85780601f106109cd576101008083540402835291602001916109f8565b820191906000526020600020905b8154815290600101906020018083116109db57829003601f168201915b5050505050905090565b610a14610a0d610ed7565b838361110b565b5050565b610a2384848461060a565b610a37610a2e610ed7565b8585858561127a565b50505050565b6060610a4882610e12565b506000600660008481526020019081526020016000208054610a69906126c4565b80601f0160208091040260200160405190810160405280929190818152602001828054610a95906126c4565b8015610ae25780601f10610ab757610100808354040283529160200191610ae2565b820191906000526020600020905b815481529060010190602001808311610ac557829003601f168201915b505050505090506000610af361142b565b90506000815103610b08578192505050610b4b565b600082511115610b3d578082604051602001610b2592919061288c565b60405160208183030381529060405292505050610b4b565b610b4684611442565b925050505b919050565b6008543414610b94576040517f08c379a0000000000000000000000000000000000000000000000000000000008152600401610b8b90612922565b60405180910390fd5b600a5434600954610ba59190612971565b1115610be6576040517f08c379a0000000000000000000000000000000000000000000000000000000008152600401610bdd90612a17565b60405180910390fd5b3460096000828254610bf89190612971565b925050819055506000600b549050610c1033826114ab565b610c2381610c1e33846115a4565b61161c565b6001600c60003373ffffffffffffffffffffffffffffffffffffffff1673ffffffffffffffffffffffffffffffffffffffff16815260200190815260200160002060006101000a81548160ff021916908315150217905550600b6000815480929190610c8e90612a37565b919050555050565b6000600560008473ffffffffffffffffffffffffffffffffffffffff1673ffffffffffffffffffffffffffffffffffffffff16815260200190815260200160002060008373ffffffffffffffffffffffffffffffffffffffff1673ffffffffffffffffffffffffffffffffffffffff16815260200190815260200160002060009054906101000a900460ff16905092915050565b60085481565b60007f80ac58cd000000000000000000000000000000000000000000000000000000007bffffffffffffffffffffffffffffffffffffffffffffffffffffffff1916827bffffffffffffffffffffffffffffffffffffffffffffffffffffffff19161480610dfb57507f5b5e139f000000000000000000000000000000000000000000000000000000007bffffffffffffffffffffffffffffffffffffffffffffffffffffffff1916827bffffffffffffffffffffffffffffffffffffffffffffffffffffffff1916145b80610e0b5750610e0a82611678565b5b9050919050565b600080610e1e836116e2565b9050600073ffffffffffffffffffffffffffffffffffffffff168173ffffffffffffffffffffffffffffffffffffffff1603610e9157826040517f7e273289000000000000000000000000000000000000000000000000000000008152600401610e889190612396565b60405180910390fd5b80915050919050565b60006004600083815260200190815260200160002060009054906101000a900473ffffffffffffffffffffffffffffffffffffffff169050919050565b600033905090565b610eec838383600161171f565b505050565b600080610efd846116e2565b9050600073ffffffffffffffffffffffffffffffffffffffff168373ffffffffffffffffffffffffffffffffffffffff1614610f3f57610f3e8184866118e4565b5b600073ffffffffffffffffffffffffffffffffffffffff168173ffffffffffffffffffffffffffffffffffffffff1614610fd057610f8160008560008061171f565b6001600360008373ffffffffffffffffffffffffffffffffffffffff1673ffffffffffffffffffffffffffffffffffffffff168152602001908152602001600020600082825403925050819055505b600073ffffffffffffffffffffffffffffffffffffffff168573ffffffffffffffffffffffffffffffffffffffff1614611053576001600360008773ffffffffffffffffffffffffffffffffffffffff1673ffffffffffffffffffffffffffffffffffffffff168152602001908152602001600020600082825401925050819055505b846002600086815260200190815260200160002060006101000a81548173ffffffffffffffffffffffffffffffffffffffff021916908373ffffffffffffffffffffffffffffffffffffffff160217905550838573ffffffffffffffffffffffffffffffffffffffff168273ffffffffffffffffffffffffffffffffffffffff167fddf252ad1be2c89b69c2b068fc378daa952ba7f163c4a11628f55a4df523b3ef60405160405180910390a4809150509392505050565b600073ffffffffffffffffffffffffffffffffffffffff168273ffffffffffffffffffffffffffffffffffffffff160361117c57816040517f5b08ba180000000000000000000000000000000000000000000000000000000081526004016111739190612300565b60405180910390fd5b80600560008573ffffffffffffffffffffffffffffffffffffffff1673ffffffffffffffffffffffffffffffffffffffff16815260200190815260200160002060008473ffffffffffffffffffffffffffffffffffffffff1673ffffffffffffffffffffffffffffffffffffffff16815260200190815260200160002060006101000a81548160ff0219169083151502179055508173ffffffffffffffffffffffffffffffffffffffff168373ffffffffffffffffffffffffffffffffffffffff167f17307eab39ab6107e8899845ad3d59bd9653f200f220920489ca2b5937696c318360405161126d919061218f565b60405180910390a3505050565b60008373ffffffffffffffffffffffffffffffffffffffff163b1115611424578273ffffffffffffffffffffffffffffffffffffffff1663150b7a02868685856040518563ffffffff1660e01b81526004016112d99493929190612ad4565b6020604051808303816000875af192505050801561131557506040513d601f19601f820116820180604052508101906113129190612b35565b60015b611399573d8060008114611345576040519150601f19603f3d011682016040523d82523d6000602084013e61134a565b606091505b50600081510361139157836040517f64a0ae920000000000000000000000000000000000000000000000000000000081526004016113889190612300565b60405180910390fd5b805181602001fd5b63150b7a0260e01b7bffffffffffffffffffffffffffffffffffffffffffffffffffffffff1916817bffffffffffffffffffffffffffffffffffffffffffffffffffffffff19161461142257836040517f64a0ae920000000000000000000000000000000000000000000000000000000081526004016114199190612300565b60405180910390fd5b505b5050505050565b606060405180602001604052806000815250905090565b606061144d82610e12565b50600061145861142b565b9050600081511161147857604051806020016040528060008152506114a3565b80611482846119a8565b60405160200161149392919061288c565b6040516020818303038152906040525b915050919050565b600073ffffffffffffffffffffffffffffffffffffffff168273ffffffffffffffffffffffffffffffffffffffff160361151d5760006040517f64a0ae920000000000000000000000000000000000000000000000000000000081526004016115149190612300565b60405180910390fd5b600061152b83836000610ef1565b9050600073ffffffffffffffffffffffffffffffffffffffff168173ffffffffffffffffffffffffffffffffffffffff161461159f5760006040517f73c6ac6e0000000000000000000000000000000000000000000000000000000081526004016115969190612300565b60405180910390fd5b505050565b606060006115b28484611a76565b905060006115bf82611ac0565b90506115f36115cd856119a8565b826040516020016115df929190612cb8565b604051602081830303815290604052611ac0565b6040516020016116039190612d49565b6040516020818303038152906040529250505092915050565b8060066000848152602001908152602001600020908161163c9190612f17565b507ff8e1a15aba9398e019f0b49df1a4fde98ee17ae345cb5f6b5e2c27f5033e8ce78260405161166c9190612396565b60405180910390a15050565b60007f01ffc9a7000000000000000000000000000000000000000000000000000000007bffffffffffffffffffffffffffffffffffffffffffffffffffffffff1916827bffffffffffffffffffffffffffffffffffffffffffffffffffffffff1916149050919050565b60006002600083815260200190815260200160002060009054906101000a900473ffffffffffffffffffffffffffffffffffffffff169050919050565b80806117585750600073ffffffffffffffffffffffffffffffffffffffff168273ffffffffffffffffffffffffffffffffffffffff1614155b1561188c57600061176884610e12565b9050600073ffffffffffffffffffffffffffffffffffffffff168373ffffffffffffffffffffffffffffffffffffffff16141580156117d357508273ffffffffffffffffffffffffffffffffffffffff168173ffffffffffffffffffffffffffffffffffffffff1614155b80156117e657506117e48184610c96565b155b1561182857826040517fa9fbf51f00000000000000000000000000000000000000000000000000000000815260040161181f9190612300565b60405180910390fd5b811561188a57838573ffffffffffffffffffffffffffffffffffffffff168273ffffffffffffffffffffffffffffffffffffffff167f8c5be1e5ebec7d5bd14f71427d1e84f3dd0314c0f7b2291e5b200ac8c7c3b92560405160405180910390a45b505b836004600085815260200190815260200160002060006101000a81548173ffffffffffffffffffffffffffffffffffffffff021916908373ffffffffffffffffffffffffffffffffffffffff16021790555050505050565b6118ef838383611aed565b6119a357600073ffffffffffffffffffffffffffffffffffffffff168373ffffffffffffffffffffffffffffffffffffffff160361196457806040517f7e27328900000000000000000000000000000000000000000000000000000000815260040161195b9190612396565b60405180910390fd5b81816040517f177e802f00000000000000000000000000000000000000000000000000000000815260040161199a929190612fe9565b60405180910390fd5b505050565b6060600060016119b784611bae565b01905060008167ffffffffffffffff8111156119d6576119d56124a7565b5b6040519080825280601f01601f191660200182016040528015611a085781602001600182028036833780820191505090505b509050600082602001820190505b600115611a6b578080600190039150507f3031323334353637383961626364656600000000000000000000000000000000600a86061a8153600a8581611a5f57611a5e613012565b5b04945060008503611a16575b819350505050919050565b6060611a998373ffffffffffffffffffffffffffffffffffffffff166014611d01565b604051602001611aa9919061381f565b604051602081830303815290604052905092915050565b6060611ae6826040518060600160405280604081526020016139d0604091396001611f47565b9050919050565b60008073ffffffffffffffffffffffffffffffffffffffff168373ffffffffffffffffffffffffffffffffffffffff1614158015611ba557508273ffffffffffffffffffffffffffffffffffffffff168473ffffffffffffffffffffffffffffffffffffffff161480611b665750611b658484610c96565b5b80611ba457508273ffffffffffffffffffffffffffffffffffffffff16611b8c83610e9a565b73ffffffffffffffffffffffffffffffffffffffff16145b5b90509392505050565b600080600090507a184f03e93ff9f4daa797ed6e38ed64bf6a1f0100000000000000008310611c0c577a184f03e93ff9f4daa797ed6e38ed64bf6a1f0100000000000000008381611c0257611c01613012565b5b0492506040810190505b6d04ee2d6d415b85acef81000000008310611c49576d04ee2d6d415b85acef81000000008381611c3f57611c3e613012565b5b0492506020810190505b662386f26fc100008310611c7857662386f26fc100008381611c6e57611c6d613012565b5b0492506010810190505b6305f5e1008310611ca1576305f5e1008381611c9757611c96613012565b5b0492506008810190505b6127108310611cc6576127108381611cbc57611cbb613012565b5b0492506004810190505b60648310611ce95760648381611cdf57611cde613012565b5b0492506002810190505b600a8310611cf8576001810190505b80915050919050565b6060600083905060006002846002611d1991906138db565b611d239190612971565b67ffffffffffffffff811115611d3c57611d3b6124a7565b5b6040519080825280601f01601f191660200182016040528015611d6e5781602001600182028036833780820191505090505b5090507f300000000000000000000000000000000000000000000000000000000000000081600081518110611da657611da561391d565b5b60200101907effffffffffffffffffffffffffffffffffffffffffffffffffffffffffffff1916908160001a9053507f780000000000000000000000000000000000000000000000000000000000000081600181518110611e0a57611e0961391d565b5b60200101907effffffffffffffffffffffffffffffffffffffffffffffffffffffffffffff1916908160001a90535060006001856002611e4a91906138db565b611e549190612971565b90505b6001811115611ef4577f3031323334353637383961626364656600000000000000000000000000000000600f841660108110611e9657611e9561391d565b5b1a60f81b828281518110611ead57611eac61391d565b5b60200101907effffffffffffffffffffffffffffffffffffffffffffffffffffffffffffff1916908160001a905350600483901c925080611eed9061394c565b9050611e57565b5060008214611f3c5784846040517fe22e27eb000000000000000000000000000000000000000000000000000000008152600401611f33929190613975565b60405180910390fd5b809250505092915050565b60606000845103611f69576040518060200160405280600081525090506120d4565b600082611f9b576003600286516004611f8291906138db565b611f8c9190612971565b611f96919061399e565b611fc2565b600360028651611fab9190612971565b611fb5919061399e565b6004611fc191906138db565b5b905060008167ffffffffffffffff811115611fe057611fdf6124a7565b5b6040519080825280601f01601f1916602001820160405280156120125781602001600182028036833780820191505090505b50905060018501602082018788518901602081018051600082525b82841015612088576003840193508351603f8160121c168701518653600186019550603f81600c1c168701518653600186019550603f8160061c168701518653600186019550603f811687015186536001860195505061202d565b80825289156120c85760038c5106600181146120ab57600281146120be576120c6565b603d6001870353603d60028703536120c6565b603d60018703535b505b50505050505080925050505b9392505050565b6000604051905090565b600080fd5b600080fd5b60007fffffffff0000000000000000000000000000000000000000000000000000000082169050919050565b612124816120ef565b811461212f57600080fd5b50565b6000813590506121418161211b565b92915050565b60006020828403121561215d5761215c6120e5565b5b600061216b84828501612132565b91505092915050565b60008115159050919050565b61218981612174565b82525050565b60006020820190506121a46000830184612180565b92915050565b600081519050919050565b600082825260208201905092915050565b60005b838110156121e45780820151818401526020810190506121c9565b60008484015250505050565b6000601f19601f8301169050919050565b600061220c826121aa565b61221681856121b5565b93506122268185602086016121c6565b61222f816121f0565b840191505092915050565b600060208201905081810360008301526122548184612201565b905092915050565b6000819050919050565b61226f8161225c565b811461227a57600080fd5b50565b60008135905061228c81612266565b92915050565b6000602082840312156122a8576122a76120e5565b5b60006122b68482850161227d565b91505092915050565b600073ffffffffffffffffffffffffffffffffffffffff82169050919050565b60006122ea826122bf565b9050919050565b6122fa816122df565b82525050565b600060208201905061231560008301846122f1565b92915050565b612324816122df565b811461232f57600080fd5b50565b6000813590506123418161231b565b92915050565b6000806040838503121561235e5761235d6120e5565b5b600061236c85828601612332565b925050602061237d8582860161227d565b9150509250929050565b6123908161225c565b82525050565b60006020820190506123ab6000830184612387565b92915050565b6000602082840312156123c7576123c66120e5565b5b60006123d584828501612332565b91505092915050565b6000806000606084860312156123f7576123f66120e5565b5b600061240586828701612332565b935050602061241686828701612332565b92505060406124278682870161227d565b9150509250925092565b61243a81612174565b811461244557600080fd5b50565b60008135905061245781612431565b92915050565b60008060408385031215612474576124736120e5565b5b600061248285828601612332565b925050602061249385828601612448565b9150509250929050565b600080fd5b600080fd5b7f4e487b7100000000000000000000000000000000000000000000000000000000600052604160045260246000fd5b6124df826121f0565b810181811067ffffffffffffffff821117156124fe576124fd6124a7565b5b80604052505050565b60006125116120db565b905061251d82826124d6565b919050565b600067ffffffffffffffff82111561253d5761253c6124a7565b5b612546826121f0565b9050602081019050919050565b82818337600083830152505050565b600061257561257084612522565b612507565b905082815260208101848484011115612591576125906124a2565b5b61259c848285612553565b509392505050565b600082601f8301126125b9576125b861249d565b5b81356125c9848260208601612562565b91505092915050565b600080600080608085870312156125ec576125eb6120e5565b5b60006125fa87828801612332565b945050602061260b87828801612332565b935050604061261c8782880161227d565b925050606085013567ffffffffffffffff81111561263d5761263c6120ea565b5b612649878288016125a4565b91505092959194509250565b6000806040838503121561266c5761266b6120e5565b5b600061267a85828601612332565b925050602061268b85828601612332565b9150509250929050565b7f4e487b7100000000000000000000000000000000000000000000000000000000600052602260045260246000fd5b600060028204905060018216806126dc57607f821691505b6020821081036126ef576126ee612695565b5b50919050565b600060608201905061270a60008301866122f1565b6127176020830185612387565b61272460408301846122f1565b949350505050565b7f4f6e6c7920746865206f776e65722063616e2077697468647261772066756e6460008201527f7300000000000000000000000000000000000000000000000000000000000000602082015250565b60006127886021836121b5565b91506127938261272c565b604082019050919050565b600060208201905081810360008301526127b78161277b565b9050919050565b7f46756e6472616973696e6720676f616c20686173206e6f74206265656e20726560008201527f6163686564000000000000000000000000000000000000000000000000000000602082015250565b600061281a6025836121b5565b9150612825826127be565b604082019050919050565b600060208201905081810360008301526128498161280d565b9050919050565b600081905092915050565b6000612866826121aa565b6128708185612850565b93506128808185602086016121c6565b80840191505092915050565b6000612898828561285b565b91506128a4828461285b565b91508190509392505050565b7f436f6e747269627574696f6e206d7573742062652065786163746c792074686560008201527f20666978656420616d6f756e7400000000000000000000000000000000000000602082015250565b600061290c602d836121b5565b9150612917826128b0565b604082019050919050565b6000602082019050818103600083015261293b816128ff565b9050919050565b7f4e487b7100000000000000000000000000000000000000000000000000000000600052601160045260246000fd5b600061297c8261225c565b91506129878361225c565b925082820190508082111561299f5761299e612942565b5b92915050565b7f436f6e747269627574696f6e20657863656564732066756e6472616973696e6760008201527f20676f616c000000000000000000000000000000000000000000000000000000602082015250565b6000612a016025836121b5565b9150612a0c826129a5565b604082019050919050565b60006020820190508181036000830152612a30816129f4565b9050919050565b6000612a428261225c565b91507fffffffffffffffffffffffffffffffffffffffffffffffffffffffffffffffff8203612a7457612a73612942565b5b600182019050919050565b600081519050919050565b600082825260208201905092915050565b6000612aa682612a7f565b612ab08185612a8a565b9350612ac08185602086016121c6565b612ac9816121f0565b840191505092915050565b6000608082019050612ae960008301876122f1565b612af660208301866122f1565b612b036040830185612387565b8181036060830152612b158184612a9b565b905095945050505050565b600081519050612b2f8161211b565b92915050565b600060208284031215612b4b57612b4a6120e5565b5b6000612b5984828501612b20565b91505092915050565b7f7b226e616d65223a202243726f776446756e64696e6720546f6b656e20230000600082015250565b6000612b98601e83612850565b9150612ba382612b62565b601e82019050919050565b7f222c20226465736372697074696f6e223a2022416e204e46542072657072657360008201527f656e74696e67206120636f6e747269627574696f6e20746f20612063726f776460208201527f66756e64696e672063616d706169676e222c2022696d616765223a202264617460408201527f613a696d6167652f7376672b786d6c3b6261736536342c000000000000000000606082015250565b6000612c56607783612850565b9150612c6182612bae565b607782019050919050565b7f227d000000000000000000000000000000000000000000000000000000000000600082015250565b6000612ca2600283612850565b9150612cad82612c6c565b600282019050919050565b6000612cc382612b8b565b9150612ccf828561285b565b9150612cda82612c49565b9150612ce6828461285b565b9150612cf182612c95565b91508190509392505050565b7f646174613a6170706c69636174696f6e2f6a736f6e3b6261736536342c000000600082015250565b6000612d33601d83612850565b9150612d3e82612cfd565b601d82019050919050565b6000612d5482612d26565b9150612d60828461285b565b915081905092915050565b60008190508160005260206000209050919050565b60006020601f8301049050919050565b600082821b905092915050565b600060088302612dcd7fffffffffffffffffffffffffffffffffffffffffffffffffffffffffffffffff82612d90565b612dd78683612d90565b95508019841693508086168417925050509392505050565b6000819050919050565b6000612e14612e0f612e0a8461225c565b612def565b61225c565b9050919050565b6000819050919050565b612e2e83612df9565b612e42612e3a82612e1b565b848454612d9d565b825550505050565b600090565b612e57612e4a565b612e62818484612e25565b505050565b5b81811015612e8657612e7b600082612e4f565b600181019050612e68565b5050565b601f821115612ecb57612e9c81612d6b565b612ea584612d80565b81016020851015612eb4578190505b612ec8612ec085612d80565b830182612e67565b50505b505050565b600082821c905092915050565b6000612eee60001984600802612ed0565b1980831691505092915050565b6000612f078383612edd565b9150826002028217905092915050565b612f20826121aa565b67ffffffffffffffff811115612f3957612f386124a7565b5b612f4382546126c4565b612f4e828285612e8a565b600060209050601f831160018114612f815760008415612f6f578287015190505b612f798582612efb565b865550612fe1565b601f198416612f8f86612d6b565b60005b82811015612fb757848901518255600182019150602085019450602081019050612f92565b86831015612fd45784890151612fd0601f891682612edd565b8355505b6001600288020188555050505b505050505050565b6000604082019050612ffe60008301856122f1565b61300b6020830184612387565b9392505050565b7f4e487b7100000000000000000000000000000000000000000000000000000000600052601260045260246000fd5b7f3c73766720786d6c6e733d22687474703a2f2f7777772e77332e6f72672f323060008201527f30302f737667222076696577426f783d223020302033353020333530223e0000602082015250565b600061309d603e83612850565b91506130a882613041565b603e82019050919050565b7f3c726563742077696474683d223130302522206865696768743d22313030252260008201527f2066696c6c3d2223666665346235222f3e000000000000000000000000000000602082015250565b600061310f603183612850565b915061311a826130b3565b603182019050919050565b7f3c636972636c652063783d22313735222063793d223137352220723d2238302260008201527f2066696c6c3d222338623561326222207374726f6b653d22233561333832352260208201527f207374726f6b652d77696474683d2234222f3e00000000000000000000000000604082015250565b60006131a7605383612850565b91506131b282613125565b605382019050919050565b7f3c636972636c652063783d223935222063793d223137352220723d223330222060008201527f66696c6c3d222338623561326222207374726f6b653d2223356133383235222060208201527f7374726f6b652d77696474683d2234222f3e0000000000000000000000000000604082015250565b600061323f605283612850565b915061324a826131bd565b605282019050919050565b7f3c636972636c652063783d22323535222063793d223137352220723d2233302260008201527f2066696c6c3d222338623561326222207374726f6b653d22233561333832352260208201527f207374726f6b652d77696474683d2234222f3e00000000000000000000000000604082015250565b60006132d7605383612850565b91506132e282613255565b605382019050919050565b7f3c656c6c697073652063783d22313735222063793d22313930222072783d223560008201527f30222072793d223430222066696c6c3d222364656238383722207374726f6b6560208201527f3d222335613338323522207374726f6b652d77696474683d2234222f3e000000604082015250565b600061336f605d83612850565b915061337a826132ed565b605d82019050919050565b7f3c636972636c652063783d22313535222063793d223137302220723d2238222060008201527f66696c6c3d22626c61636b222f3e000000000000000000000000000000000000602082015250565b60006133e1602e83612850565b91506133ec82613385565b602e82019050919050565b7f3c636972636c652063783d22313935222063793d223137302220723d2238222060008201527f66696c6c3d22626c61636b222f3e000000000000000000000000000000000000602082015250565b6000613453602e83612850565b915061345e826133f7565b602e82019050919050565b7f3c656c6c697073652063783d22313735222063793d22313930222072783d223160008201527f30222072793d2235222066696c6c3d2223356133383235222f3e000000000000602082015250565b60006134c5603a83612850565b91506134d082613469565b603a82019050919050565b7f3c7061746820643d224d2031363020323130205120313735203232352c20313960008201527f302032313022207374726f6b653d222335613338323522207374726f6b652d7760208201527f696474683d2234222066696c6c3d226e6f6e65222f3e00000000000000000000604082015250565b600061355d605683612850565b9150613568826134db565b605682019050919050565b7f3c7061746820643d224d20313235203132302051203137352038302c2032323560008201527f20313230204c20323235203132352051203137352039302c203132352031323560208201527f205a222066696c6c3d222366663639623422207374726f6b653d22233561333860408201527f323522207374726f6b652d77696474683d2234222f3e00000000000000000000606082015250565b600061361b607683612850565b915061362682613573565b607682019050919050565b7f3c636972636c652063783d223935222063793d223230302220723d223622206660008201527f696c6c3d22676f6c64222f3e0000000000000000000000000000000000000000602082015250565b600061368d602c83612850565b915061369882613631565b602c82019050919050565b7f3c636972636c652063783d22323535222063793d223230302220723d2236222060008201527f66696c6c3d22676f6c64222f3e00000000000000000000000000000000000000602082015250565b60006136ff602d83612850565b915061370a826136a3565b602d82019050919050565b7f3c7465787420783d223530252220793d223930252220646f6d696e616e742d6260008201527f6173656c696e653d226d6964646c652220746578742d616e63686f723d226d6960208201527f64646c652220666f6e742d73697a653d223132222066696c6c3d22626c61636b60408201527f223e000000000000000000000000000000000000000000000000000000000000606082015250565b60006137bd606283612850565b91506137c882613715565b606282019050919050565b7f3c2f746578743e3c2f7376673e00000000000000000000000000000000000000600082015250565b6000613809600d83612850565b9150613814826137d3565b600d82019050919050565b600061382a82613090565b915061383582613102565b91506138408261319a565b915061384b82613232565b9150613856826132ca565b915061386182613362565b915061386c826133d4565b915061387782613446565b9150613882826134b8565b915061388d82613550565b91506138988261360e565b91506138a382613680565b91506138ae826136f2565b91506138b9826137b0565b91506138c5828461285b565b91506138d0826137fc565b915081905092915050565b60006138e68261225c565b91506138f18361225c565b92508282026138ff8161225c565b9150828204841483151761391657613915612942565b5b5092915050565b7f4e487b7100000000000000000000000000000000000000000000000000000000600052603260045260246000fd5b60006139578261225c565b91506000820361396a57613969612942565b5b600182039050919050565b600060408201905061398a6000830185612387565b6139976020830184612387565b9392505050565b60006139a98261225c565b91506139b48361225c565b9250826139c4576139c3613012565b5b82820490509291505056fe4142434445464748494a4b4c4d4e4f505152535455565758595a6162636465666768696a6b6c6d6e6f707172737475767778797a303132333435363738392b2fa2646970667358221220d432a1ffea418dd7a53019bba84dd34a5cb613c89d4349c167a54ffcf72656ca64736f6c634300081c0033",
   "linkReferences": {},
   "deployedLinkReferences": {}
}